:020000040800F2
:1000000030080020F1010008FD290008F52900084A
:10001000F92900081D1600080D2D00080000000039
:10002000000000000000000000000000292A000875
:10003000211600080000000007020008090200085D
:100040000B0200080B0200080B0200080B0200085C
:100050000B0200080B0200080B0200080B0200084C
:100060000B0200080B0200080B0200080B0200083C
:100070000B0200080B0200080B0200080B0200082C
:100080000B0200080B0200080B0200080B0200081C
:100090000B0200080B0200080B0200080B0200080C
:1000A0000B0200080B0200080B0200080B020008FC
:1000B0000B0200080B0200080B0200080B020008EC
:1000C0000B0200080B0200080B0200080B020008DC
:1000D0000B020008E92C00080B0200080B020008C4
:1000E0000B0200080B0200080B0200080B020008BC
:1000F0000B0200080B0200080B0200080B020008AC
:100100000B0200080B0200080B0200080B0200089B
:100110000B0200080B0200080B0200080B0200088B
:100120000B0200080B0200080B0200080B0200087B
:1001300000F002F800F04DF80AA090E8000C8244AC
:100140008344AAF10107DA4501D100F042F8AFF289
:10015000090EBAE80F0013F0010F18BFFB1A43F0A5
:100160000103184788F20000A8F20000103A24BFEB
:1001700078C878C1FAD8520724BF30C830C144BF0C
:1001800004680C607047000000230024002500264E
:10019000103A28BF78C1FBD8520728BF30C148BFEA
:1001A0000B60704766290BF0DE81642900F07280D5
:1001B000782900F0AB80002070471FB500F0B0FC3C
:1001C0000400002000210AF07DF8E0601FBD10B59A
:1001D00010BD00F0EDFD1146FFF7EFFF08F060FFE6
:1001E00000F00BFE03B4FFF7F2FF03BC02F02FFE9A
:1001F0000948804709480047FEE7FEE7FEE7FEE7BB
:10020000FEE7FEE7FEE7FEE7FEE7FEE704480549F6
:10021000054A064B704700002B2A000831010008F0
:10022000300200203008002030040020300400207C
:10023000704710B54C1084EA530404D54042C1F114
:10024000000138BF491E1B4204D55242C3F10003CE
:1002500038BF5B1E00F045F914F0804F04D04042D7
:10026000C1F1000138BF491E14F0004F04D05242C2
:10027000C3F1000338BF5B1E10BD00000FB404497A
:1002800010B503AA029800F017FC10BC5DF814FB2F
:10029000080000202DE9F041064600241068752969
:1002A000314616A510D0AFF30080002802DA404294
:1002B00013A507E031688A0701D512A502E04907B6
:1002C00004D511A5012401E0AFF3008000210A222A
:1002D00006F1240709E0B0FBF2FCB0FBF2F302FBED
:1002E0001C00303078541846491C0028F3D12346AE
:1002F0002A463046BDE8F04100F075B90000000024
:100300002D0000002B0000002000000070B5044606
:100310000D4621461068AFF300802188090502D5FB
:100320000F4A7A4402E00E4A7A440E32002104F168
:10033000240305E000F00F060009965D5E54491C99
:100340000028F7D120780023000704D5702D02D0B3
:1003500009B1022311322046BDE8704000F043B9D4
:1003600014EF00002DE9F0474FF0000A89460446DB
:10037000C0F820A02046E1688847002876D02528CC
:1003800006D0D4E901219047206A401C2062F1E7A1
:10039000E168204600258847C4F81CA006460027CF
:1003A000C4F818A02A2E09D0304602F049FD38B30F
:1003B00004EB8708303EC8F8186019E059F8041BB0
:1003C000204604EB87029161E1688847012F0646C9
:1003D00018D1E069002820DA25F020051DE0D8F8C2
:1003E000180000EB800006EB40003038C8F8180019
:1003F0002046E1688847064602F022FD0028EED13B
:10040000012F0AD02E2E08D12046E16888477F1C94
:100410000646022F45F02005C4DBA069002803DA58
:10042000404245F00105A061E80701D025F0100524
:10043000B6B1A6F14100192802D8203645F400656E
:100440004A463146204625604D46FFF7ABFE58B17F
:10045000012806D0ED1D25F0070000F1080989E705
:1004600004E005F1040985E730468AE7206ABDE823
:10047000F08740EA010310B59B070FD1042A0DD382
:1004800010C808C9121F9C42F8D020BA19BA884275
:1004900001D9012010BD4FF0FF3010BD1AB1D307B4
:1004A00003D0521C07E0002010BD10F8013B11F8EA
:1004B000014B1B1B07D110F8013B11F8014B1B1B13
:1004C00001D1921EF1D1184610BD02F0FF0343EA9C
:1004D000032242EA024200F003BB704770477047B4
:1004E000704753EA020C00F069802DE9F04B4FF0A1
:1004F0000006002B1FBFB3FA83F503FA05F424FAB4
:1005000005F65E4012BF1643B2FA82F502FA05F410
:10051000C5F120051EBF22FA05FC44EA0C04203573
:1005200056EA044C4FEA144418BF641C4FF000080C
:100530004FF00009904271EB030C39D3002919BF29
:10054000B1FA81F701FA07F6B0FA80F700FA07F678
:10055000C7F120071EBF20FA07FC46EA0C06203729
:10056000B6FBF4FCA7EB0507103F07F01F0BCBF120
:1005700020060CFA0BFB2CFA06F644BFB346002605
:10058000202FA4BF5E464FF0000B5BEA060C08BFAD
:100590004FF0010B19EB0B09ABFB027C48EB060893
:1005A000C01B06FB02CC0BFB03CC71EB0C01C1E7BB
:1005B0000B46024641464846BDE8F08B13B54FF066
:1005C00000004FF00001AFF30080BDE81C40704711
:1005D00010B500F0A9FA006810BD10B5044600F08F
:1005E000A3FA046010BD2DE9F0470D4699469246E6
:1005F000044600F124080168880604D5E06921F06A
:100600001001216000E00120A84201DD471B00E04D
:100610000027A1697A1902EB0900081AA061207865
:10062000C00602D42046AFF30080002608E0D4E9DB
:1006300001211AF806009047206A401C761C2062AF
:100640004E45F4DB2078C0060AD52046AFF3008083
:1006500006E0D4E9012130209047206A401C206246
:10066000381EA7F10107F4DC07E0D4E9012118F8EE
:1006700005009047206A401C2062281EA5F1010554
:10068000F3DC2046AFF300802078000602D502207C
:10069000BDE8F0870120FBE770472DE9FF4F0C46CE
:1006A0001E464FF0FF378BB0D2E90001DDF86080C5
:1006B0000A908A46C1F30A5505B93D46002108460D
:1006C0004FF00000BAF1000F00F4400005DA00EB33
:1006D00080004FF4400101EA50004FEA9059B9F10F
:1006E000010F00DDB9460A9850EA4A000ED044F6E0
:1006F0001050A5F2FF3545432F14B8F1000F1ED05E
:100700007542291E1EDDC9F100021CE0B8F1010F7F
:100710004FF0000001D0302103E0F24305E0215406
:10072000401CB042FBDB30460022002121540B99D3
:10073000C1F80880C1E900200FB0BDE8F08FBD1BF3
:100740006D1CDEE74A4600DA694206A800F08EFA20
:1007500006AB93E8070003AB83E8070050460A990D
:1007600000F094FB8DE80700A0F500501F380090C2
:100770000398002D0ADD42F21F014A460844002377
:1007800003A90390684600F0FDFD09E0A0F50050C4
:100790004A461F38002303A90390684600F007FE6D
:1007A0008DE807000004000C03D04FF0FF30410833
:1007B00000E01046B8F1000F03D000220092154669
:1007C0001EE0751E05D400F0B3F9303262556D1E7F
:1007D000F9D5B3460122084302D000227F1C04E071
:1007E0002078302801D100227F1E002A099784D06A
:1007F0001DE0112D07DA00F09BF9303262556D1CB7
:1008000050EA0102F5D1084302D00098C8B10EE0C9
:100810000021681E05E0235C625C63542254401E84
:10082000491C8142F7DBAB46A81B401E0990002003
:1008300004F80B000B98099AC0F80880C0E9002B57
:100840007AE711264FF0000857E72DE9F04F884668
:100850000446D21D22F0070191B0D1E90001CDE993
:100860000A0102F055FA02460B98C00F01D02D2064
:1008700007E02068810701D52B2002E0202101EA52
:10088000C000032A099001D0072A05DB0346414630
:10089000204600F0ABF90BE12078800601D5E06935
:1008A00000E00620B8F1650F814606D0B8F1660F6A
:1008B00018D0B8F1670F70D131E00020B9F1110FF5
:1008C000009001DB112301E009F101030AAA01A94B
:1008D0000CA8FFF7E2FEDDE90C70002609F1010526
:1008E000834647E001204B4600904FF000470AAA9C
:1008F00001A90CA8FFF7D1FEDDE90DB00C995D460A
:10090000002610B909F101000D18B9EB050003D458
:10091000C0F1FF3609F10105A5EB09002BE0B9F1A3
:10092000010F01DA4FF001090020B9F1110F009019
:10093000484601DD112300E003460AAA01A90CA8DC
:10094000FFF7ABFEDDE90C704D46002683462078AC
:1009500000070AD4AB4500DA5D4601A8012D04DD8D
:10096000411911F8011C302907D04F4502DA17F15F
:10097000040F04DA012082460FE06D1EEEE7002F1F
:1009800002DCED1B3E4403E0781CA84200DD7D1C28
:10099000B81B00F1010A4FF000472078000703D48C
:1009A000AA4501DB4FF0FF3A0021B7F1004F0DF1EE
:1009B00043088DF8431024D002202B23002F01DAA6
:1009C0007F422D230A21021EA0F1010000DC5FB14D
:1009D00097FBF1FC97FBF1F201FB1C7C17460CF135
:1009E000300C08F801CDEEE7A8F101000370218872
:1009F000090501D5452100E06521A0F1010800F8B5
:100A0000011C09980FA9A1EB0807FF1D00B10120E7
:100A1000411901EBEA70A1693844081A401EA0612F
:100A20002078C00602D42046AFF30080099828B190
:100A3000D4E901219047206A401C20622078C0063A
:100A400022D52046AFF300801EE0002E04DBB34524
:100A500002DD01A8805D00E03020D4E9012190474B
:100A6000206A401C2062761CAAF101005FEA000A9D
:100A70000AD100F055F8C0680168405CD4E9012152
:100A80009047206A401C2062281EA5F10105DCDC8D
:100A900007E0D4E9012118F8010B9047206A401CB7
:100AA0002062381EA7F10107F3DC2046AFF3008077
:100AB000032011B041E60000074B70B50D467B44A2
:100AC00000F081F80446284600F042F910B14FF0DA
:100AD000FF3070BD204670BD1B4800004FF0000283
:100AE0000429C0F0128010F0030C00F03781CCF123
:100AF000040CBCF1020F18BF00F8012BA8BF20F8AE
:100B0000022BA1EB0C0100F029B95FEAC17C24BFE4
:100B100000F8012B00F8012B48BF00F8012B7047AB
:100B200000487047EC01002000487047CC010020CD
:100B300030B5B0F10A024FEA900E71F100034EEAAF
:100B4000817EB0EB0E0061EB91014FEA101E4EEA80
:100B5000017E10EB0E0041EB11114FEA102E4EEA10
:100B6000016E10EB0E0041EB11214FEA104E4EEAE0
:100B7000014E10EB0E0041EB1141401841F1000114
:100B80004FEAD00040EA41704FEAD10110EB8005F6
:100B90004FEA810444EA907444EB01046D1944EB7C
:100BA0000404521BA3414FF0000348BF0A3200D592
:100BB00030BD401C41F1000130BD000001694A1CFC
:100BC00002610878704700B58FB0CDE9013100218E
:100BD000059105497944CDE9031011466846FFF7B0
:100BE000C1FB0FB000BD0000E5FFFFFF2DE9F041A4
:100BF0001F46044603260168072A01F4006004DB4F
:100C000008B116A505E016A503E008B115A500E09A
:100C100015A521F010002060A069C01EA0610FB1D1
:100C2000401EA0612046AFF300804FB1D4E90121FE
:100C300038469047206A401C2062C01C206206E0B3
:100C4000206AFAE7D4E9012115F8010B9047761ED6
:100C5000F8D22046AFF30080BDE8F0814E414E004F
:100C60006E616E00494E4600696E66002DE9F047E0
:100C7000814616468AB0354878440DC88DE80D0087
:100C800032487844801C03AC0DC884E80D0041F65E
:100C90009B300844372190FBF1F290FBF1F5A5F170
:100CA000800501FB12041B3C02D56442012000E0D8
:100CB0000020DFF898A080460027FA44AAF1BE0A77
:100CC0000EE0E0070AD03246684607EB47010123F1
:100CD0000AEB810100F06BFB8DE8070064107F1CBC
:100CE000002CEED1194F7F44AE3F19E0E80715D034
:100CF00007EB04100DF1180A90E80E008AE80E00C8
:100D0000C068F04201D1981908903246012306A923
:100D100003A800F04CFB03AB83E807006D10641CD4
:100D2000002DE3D14FF0010332466946B8F1000FC0
:100D300003A802D000F026FB01E000F038FBC9E96F
:100D40000001C9F808200AB0BDE8F08758E70000A4
:100D5000007B00F0800070474FF0000200B51346A2
:100D600094469646203922BFA0E80C50A0E80C50CB
:100D7000B1F12001BFF4F7AF090728BFA0E80C507C
:100D800048BF0CC05DF804EB890028BF40F8042B75
:100D900008BF704748BF20F8022B11F0804F18BFE2
:100DA00000F8012B7047000000487047CC0100207C
:100DB0007546FFF7F9FFAE4605006946534620F039
:100DC0000700854618B020B5FFF720FABDE820409F
:100DD0004FF000064FF000074FF000084FF0000BF7
:100DE00021F00701AC46ACE8C009ACE8C009ACE8AA
:100DF000C009ACE8C0098D46704710B50446AFF392
:100E000000802046BDE81040FFF7ECB94FF0013CF0
:100E100050F8042B51F8043B9A4221D1A2EB0C0369
:100E2000934313EACC1317D150F8042B51F8043B29
:100E30009A4215D1A2EB0C03934313EACC130BD1C6
:100E400050F8042B51F8043B9A4209D1A2EB0C0351
:100E5000934313EACC13DBD04FF00000704700BF80
:100E6000D01A01BAB1FA81F101F0180122FA01F0A9
:100E7000CB40C1F12001DBB2C0B2C01A2CFA01F3A1
:100E8000D11A914311EAC311E6D170475FEA400CD1
:100E900008BF91F0000F4FEA8C234FEAC12243EACA
:100EA00051514FEA1C5018BF00F5F0404FEA300096
:100EB00018BF41F000415FEA6C5C00F02980BCF192
:100EC000FF3F08BF40F080407047130C06BF12047C
:100ED0004FF0100C4FF0000C130E04BF12020CF177
:100EE000080C130F04BF12010CF1040C930F04BF84
:100EF00092000CF1020CD30F04BF52000CF1010C54
:100F000011464FF00002A0F11F00A0EB0C0070474B
:100F100011F0004F08BF704731F000413FF4D5AFEA
:100F20000B0C06BF09044FF0100C4FF0000C0B0E19
:100F300004BF09020CF1080C0B0F04BF09010CF1EE
:100F4000040C8B0F04BF89000CF1020CCB0F04BF03
:100F500049000CF1010CCCF12003A0EB0C0022FAAB
:100F600003F302FA0CF241EA030100F101007047B9
:100F700020F07F4C80EA030023F07F47ACEB0703AF
:100F800003F57C5300F0004003F1FF032DE9804995
:100F90004FEA154B09B44FEA144325EA0B4E24EAF5
:100FA00003480FF2042606EB132749083E785FEA50
:100FB000320203FB0667C7F5000707FB06F64FEA98
:100FC00054374FEAD64606F1020607FB066CCCF111
:100FD000005C4FEA1C472CEA074C07FB06F40CFBAD
:100FE00006F504EB15464FEA961634BF00204FF085
:100FF00000404FEAD13706FB07FC4FEA1C4C0CFBC4
:101000000BF7D21B03FB0CF761EB07010CFB0EF790
:10101000B0EB074072EB17420CFB08F734BFA2EBB2
:101020000742B2EB074261EB17414FEA0C444FEA2B
:10103000910706FB07FC4FEA1C4C0CFB0BF7B0EBCF
:10104000C74072EB573203FB0CF734BFA2EBC74229
:10105000B2EBC74261EB57310CFB0EF7B0EBC700A8
:1010600072EB57720CFB08F734BFA2EBC702B2EB6E
:10107000C70261EB5771039F4FEA816141EA921108
:1010800004EBCC044FEAD1374FEA826206FB07FC3F
:1010900042EA90124FEA80604FEA1C4C0CFB0BF7BF
:1010A000D21B03FB0CF761EB07010CFB0EF7B0EB57
:1010B000074072EB17420CFB08F734BFA2EB074264
:1010C000B2EB074261EB17414FEA8C554FEA9107AB
:1010D00004EB9C2406FB07FC4FEA1C4C0CFB0BF7B3
:1010E000B0EBC74072EB573203FB0CF734BFA2EBF7
:1010F000C742B2EBC74261EB57310CFB0EF7B0EBC6
:10110000C70072EB57720CFB08F734BFA2EBC702A3
:10111000B2EBC70261EB577115EB4C254FEA8161C9
:1011200041EA92114FEA82624FEAD13742EA9012C5
:1011300006FB07FC44F100044FEA80604FEA1C4CB8
:101140000CFB0BF7D21B03FB0CF761EB07010CFB4D
:101150000EF7B0EB074072EB17420CFB08F734BFF9
:10116000A2EB0742B2EB074261EB174115EB1C15EE
:101170004FEA813141EA92414FEA823242EA90429B
:101180004FEA80304FEA0C7644F1000448EA03430A
:101190004EEA0B484FF0000EB2EB080C71EB030760
:1011A00024BF624639464EEB0E0E4FF0000B00187E
:1011B000524149414BEB0B0BB2EB080C71EB0307AF
:1011C0007BF1000B24BF624639464EEB0E0E4FF00A
:1011D000000B0018524149414BEB0B0BB2EB080CD2
:1011E00071EB03077BF1000B24BF624639464EEBDF
:1011F0000E0E51EA020718BF46F0010616EB0E76F6
:1012000055F1000254F1000103D5BDE88901BDE8A4
:101210000088BDE88901BDE80048B619524141EB9C
:101220000101A3F10103704780807F7E7D7C7B7A82
:101230007978777676757473727171706F6E6E6D82
:101240006C6C6B6A6A696868676666656464636328
:1012500062616160605F5F5E5E5D5D5C5C5B5B5AAE
:101260005A5959585857575656555555545453531B
:1012700052525251515050504F4F4F4E4E4D4D4D76
:101280004C4C4C4B4B4B4A4A4A49494948484847C1
:1012900047474746464645454544444444434343FF
:1012A0004342424242414141002B9C4630D47700A8
:1012B0002BD01CB54FEA370703B44FF010004FF0A6
:1012C0001001BAF1000F06D0BCF1000FDCBF40F0F6
:1012D000080040F008014FF000000FBCBDE81040CE
:1012E0000BF1010BBBF1010F08BF5FEA170722BF2B
:1012F00012F1010211F101014FF0004143F100032D
:1013000000F0004043EA00007047F9D35708D0E7E7
:1013100046EA064613F1400F4FEA16461FDD13F169
:10132000200FDFBF16430A46002120335B42BED0A8
:10133000C3F1200746EA064602FA07F74FEA1646C7
:1013400046EA0706C3F1200722FA03F201FA07F77B
:1013500021FA03F14FF0000342EA0702A7E746EA49
:10136000020646EA06464FEA164646EA0106BCBFB2
:1013700046EA0646360C4FF000034FF000024FF0ED
:10138000000194E72DE9804C9A46934670B491E8A9
:10139000380007C831EA400C48BF34EA430C03D593
:1013A000FFF7E6FDFFF780FFF0BCBDE8008C2DE9FC
:1013B000804C9A46934670B491E8380007C810F004
:1013C000804F08BF13F0804F03D100F005F8FFF7FE
:1013D0006BFFF0BCBDE8008C20F07F4780EA030083
:1013E00023F07F4C07EB0C03A3F57C5300F0004087
:1013F000A3F1FE0392F0000F00F0B38095F0000F10
:1014000000F077802DE901494FEA11404FEA144678
:1014100021EA004800FB06FC24EA064708FB06F622
:1014200007FB08F800FB07F718EB06484CEB164CD7
:101430004FEA124B18EB07484FEA15464CEB1740A2
:1014400022EA0B4E0BFB06FC25EA06470EFB06F6CE
:1014500007FB0EFE0BFB07F71EEB064E4CEB164C84
:101460004FF000061EEB074E4CEB174B18EB0B082A
:1014700040F1000018EB0E0B58EB000840F10000A3
:101480008F1A4FF000013CBFC943661B14BFB5EB78
:10149000040C00213CBFC943F61B4FEA17444EEA37
:1014A0008E0E27EA04454FEA1C4704FB07622CEA2C
:1014B000074C05FB07F70CFB05F604FB0CFC16EBD1
:1014C000074642EB174216EB0C4642EB1C421BEB65
:1014D000060658EB0202414146EA9E0601D5BDE8E8
:1014E0000189B619524141EB0101A3F10103BDE8A5
:1014F00001894FEA14454FEA114724EA054621EADB
:10150000074C05FB07F406FB07F70CFB06F105FB90
:101510000CFC11EB074144EB17444FEA124711EB67
:101520000C4144EB1C4422EA074C05FB07F206FB86
:1015300007F70CFB06F605FB0CFC16EB074642EB27
:10154000174216EB0C4642EB1C456A1854F1000199
:1015500048BF7047B619524141EB0101A3F10103A5
:10156000704795F0000F37D04FEA11424FEA144709
:1015700021EA024624EA074C02FB07F106FB07F7C3
:101580000CFB06F402FB0CFC14EB074441EB174187
:101590004FEA154714EB0C4441EB1C4125EA074C7C
:1015A00002FB07F506FB07F70CFB06F602FB0CFC3B
:1015B00016EB074645EB174516EB0C4645EB1C4270
:1015C000121951F1000148BF7047B619524141EB61
:1015D0000101A3F1010370474FEA14454FEA114797
:1015E00024EA054621EA074C05FB07F106FB07F74D
:1015F0000CFB06F24FF0000605FB0CFC12EB074259
:1016000041EB174112EB0C4251EB1C4148BF7047B4
:10161000921841EB0101A3F10103704700BFFEE7FF
:101620007047000070B50446B3F5804F13D1D1E97F
:10163000000540EA05108D6840EA05208D692843C1
:101640008D8940EA054054F82250064E3540284323
:1016500044F8220003E06FF0704044F822000020BC
:1016600070BD00000000F0CF70B50246086852F867
:10167000200020F001000E6842F826008868082843
:1016800001D1402300E00023486818438E683043AE
:10169000CE6830430E6930434E693043CE693043E3
:1016A0000E6A30434E6A30438E6A3043CE6A30430E
:1016B0000E6B40EA060488690443486B0443074DF7
:1016C00045F4806545F4E025086852F82000A843F9
:1016D00020430E6842F82600002070BD7FFB080002
:1016E00010B50346D1E9000440EA04108C6840EAD2
:1016F00004208C8940EA0444088A401E44EA0054CD
:10170000087D801E44EA00608C692043541C53F815
:10171000244004F040442043541C43F8240000209B
:1017200010BD000070B50446002594F82100022881
:1017300003D00420A0630125C1E02068006820F0E8
:101740000E00216808602068006820F00100216810
:1017500008605C492068884252D95A497839206823
:10176000884201D1012047E0564964392068884207
:1017700001D1102040E0534950392068884201D1FE
:10178000801539E04F493C392068884201D18014E6
:1017900032E04C4928392068884202D14FF4803029
:1017A0002AE0484914392068884202D14FF4801059
:1017B00022E044492068884201D140041CE04249AB
:1017C0002068884201D1012016E03F491431206889
:1017D000884201D110200FE03B492831206888421F
:1017E00001D1801508E038493C312068884201D198
:1017F000801401E04FF480303349091F086051E044
:10180000304978392068884201D1012047E02D49CC
:1018100064392068884201D1102040E029495039BC
:101820002068884201D1801539E026493C3920687A
:10183000884201D1801432E0224928392068884248
:1018400002D14FF480302AE01E49143920688842C2
:1018500002D14FF4801022E01A492068884201D159
:1018600040041CE018492068884201D1012016E09C
:10187000154914312068884201D110200FE0124927
:1018800028312068884201D1801508E00E493C319A
:101890002068884201D1801401E04FF4803009496A
:1018A00080394860012084F8210000BF002084F8BE
:1018B000200000BF606B10B12046616B884728464E
:1018C00070BD000080000240080402402DE9F84786
:1018D000024600239C467BE14FF0010808FA03F41E
:1018E000D1F8008008EA0400A0427DD1DFF8F4A21C
:1018F000D1F80480A8EB0A09D0453AD014DCB8F13D
:10190000030F50D009DCB8F1000F31D0B8F1010F4E
:101910001CD0B8F1020F49D120E0B8F1110F18D056
:10192000B8F1120F42D11EE0B9F5881F25D006DCB0
:10193000B9F5803F20D0B9F5801F37D11AE0B9F54D
:10194000001F18D0B9F5041F30D117E0D1F80CC032
:101950002DE0D1F80C8008F1040C28E0D1F80C80BF
:1019600008F1080C23E0D1F80C8008F10C0C1EE003
:1019700000BF00BF00BF00BF00BF00BFD1F808809C
:10198000B8F1000F02D14FF0040C0BE0D1F8088041
:10199000B8F1010F03D14FF0080C146102E04FF0D1
:1019A000080C546103E04FF0000C00E000BF00BFE2
:1019B000FF2801D8904601E002F104084646FF28BE
:1019C00002D84FEA830803E0A3F108084FEA880829
:1019D0004746D6F800804FF00F0909FA07F928EAC0
:1019E00009080CFA07F900E07AE048EA0908C6F8A5
:1019F0000080D1F8048008F08058B8F1805F6FD182
:101A000000BFDFF8E481D8F8188048F00108DFF85B
:101A1000D891C9F81880C846D8F8188008F001088D
:101A2000CDF8008000BF00BF4FEAB9384FEA9309F4
:101A300058F829504FEA83784FEA18794FF00F0889
:101A400008FA09F825EA0805DFF8A081424502D125
:101A50004FF0000824E0DFF89881424502D14FF0B2
:101A600001081DE0DFF88C81424502D14FF00208E9
:101A700016E0DFF88481424502D14FF003080FE001
:101A8000DFF87881424502D14FF0040808E0DFF822
:101A90007081424502D14FF0050801E04FF0060881
:101AA0004FEA83794FEA197908FA09F848EA0505F7
:101AB000DFF850814FEA930948F82950D1F80480A3
:101AC00008F48038B8F5803F0BD1DFF83C81D8F8B6
:101AD000008048EA0008DFF83091C9F800800AE089
:101AE00075E0DFF82481D8F8008028EA0008DFF8E4
:101AF0001891C9F80080D1F8048008F40038B8F5CE
:101B0000003F0ED1DFF8008108F10408D8F800800A
:101B100048EA0008DFF8F09009F10409C9F80080EC
:101B20000DE0DFF8E48008F10408D8F8008028EA26
:101B30000008DFF8D49009F10409C9F80080D1F851
:101B4000048008F48018B8F5801F0ED1DFF8B88043
:101B500008F10808D8F8008048EA0008DFF8A890E3
:101B600009F10809C9F800800DE0DFF89C8008F150
:101B70000808D8F8008028EA0008DFF88C9009F1FE
:101B80000809C9F80080D1F8048008F40018B8F5F5
:101B9000001F0ED1DFF8708008F10C08D8F8008023
:101BA00048EA0008DFF8609009F10C09C9F80080E4
:101BB0000DE0DFF8548008F10C08D8F8008028EA1E
:101BC0000008DFF8449009F10C09C9F800805B1C9B
:101BD000D1F8008028FA03F8B8F1000F7FF47CAE4A
:101BE000BDE8F88700001110001002400008014015
:101BF000000C014000100140001401400018014099
:101C0000001C0140080001400004014002469368A6
:101C10000B400BB1012000E00020704710B5C268F6
:101C200021EA020302EA010443EA0443036110BD0E
:101C30000AB1016101E00B040361704701480068CB
:101C4000704700001000002010B50848006840F000
:101C5000100006490860052000F080F80F2000F011
:101C600007F800F02BF8002010BD00000020024013
:101C700070B504460E4800784FF47A71B1FBF0F06D
:101C80000C490968B1FBF0F5284600F073FC08B177
:101C9000012070BD102C07D200222146501E00F0FA
:101CA0001EF80548046001E00120F2E70020F0E79B
:101CB000180000200000002014000020704701469A
:101CC0000846002809DB00F01F0301229A4043095F
:101CD0009B0003F1E023C3F8002100BF70472DE90A
:101CE000F05F80460D461646002701F025F80746AE
:101CF00039462A46334601F00700C0F1070ABAF117
:101D0000040F02D94FF0040A01E0C0F1070AD146DE
:101D100000F1040ABAF1070F02D24FF0000A01E005
:101D2000A0F1030AD4464FF0010A0AFA09FAAAF10F
:101D3000010A0AEA020A0AFA0CFA4FF0010B0BFA3E
:101D40000CFBABF1010B0BEA030B4AEA0B04214637
:101D5000404600F0F9FFBDE8F09F000000BF00F032
:101D60000702064B19684FF6FF031940044B0B435B
:101D700043EA0221014B196000BF70470CED00E0FF
:101D80000000FA0570B504460D460CB9012070BD7F
:101D90005A48006800F00700A8420ED25748006871
:101DA00020F007002843554908600846006800F005
:101DB0000700A84201D00120E9E7207800F00200E6
:101DC00002281DD1207800F00400042805D14C48D9
:101DD000406840F4E0604A494860207800F008001C
:101DE000082805D14648406840F46050444948609E
:101DF0004348406820F0F000A1680843404948602B
:101E0000207800F0010078B36068012806D13C48D2
:101E1000006800F4003090B90120B8E7606802283B
:101E200006D13748006800F0007040B90120AEE7E5
:101E30003348006800F0020008B90120A7E73048E5
:101E4000406820F00300616808432D494860FFF7AF
:101E5000F5FE064609E0FFF7F1FE801B41F28831EE
:101E6000884202D9032092E707E02548406800F045
:101E70000C006168B0EB810FEDD12048006800F0E4
:101E80000700A8420ED91D48006820F0070028432B
:101E90001A4908600846006800F00700A84201D00F
:101EA000012074E7207800F00400042807D11448CA
:101EB000406820F4E060E1680843114948602078F8
:101EC00000F00800082808D10D48406820F4605050
:101ED000216940EAC1000A49486000F03FF808491A
:101EE0004968C1F30311074A515CC84006490860BC
:101EF00006480068FFF7BCFE002048E700200240CB
:101F0000001002405AB60008000000201400002013
:101F100001480068704700000000002000B5FFF78E
:101F2000F7FF04494968C1F30221034A515CC840E4
:101F300000BD0000001002406AB6000800B5FFF7BF
:101F4000E7FF04494968C1F3C221034A515CC84014
:101F500000BD0000001002406AB60008F0B585B070
:101F60000FF26C0C9CE8E01001A8A0E8E0101CA5A2
:101F70002D68009500210022002300240020194D27
:101F8000696801F00C05F5B1042D02D0082D19D1B6
:101F900001E0154819E001ADC1F38346AC5D01F4E1
:101FA000803555B10F4D6D68C5F340451DF80520CE
:101FB0000D4D6543B5FBF2F302E00C4D04FB05F358
:101FC000184602E000BF084800BF00BF05B0F0BDE2
:101FD00002030405060708090A0B0C0D0E0F10106A
:101FE000010200000010024000127A0000093D00CA
:101FF000F8B504460CB90120F8BD207800F00100C6
:10200000002878D0F848406800F00C0004280CD074
:10201000F548406800F00C00082811D1F2484068EB
:1020200000F48030B0F5803F0AD1EF48006800F43A
:10203000003000285FD0606800285CD10120DBE719
:1020400000BF6068B0F5803F06D1E748006840F403
:102050008030E549086028E0606858B9E2480068C7
:1020600020F48030E04908600846006820F48020B1
:1020700008601AE06068B0F5A02F0BD1DA4800685C
:1020800040F48020D84908600846006840F4803059
:1020900008600AE0D448006820F48030D249086023
:1020A0000846006820F48020086000BF606888B19E
:1020B000FFF7C4FD054606E0FFF7C0FD401B64289E
:1020C00001D9032098E7C848006800F400300028D0
:1020D000F2D010E0FFF7B2FD054606E0FFF7AEFDD7
:1020E000401B642801D9032086E7BF48006800F43C
:1020F00000300028F2D1207800F00200022857D1E9
:10210000B948406800F00C0050B1B748406800F092
:102110000C00082818D1B448406800F4803098B901
:10212000B148006800F0020020B12069012801D008
:10213000012061E7AC48006820F0F800616940EADE
:10214000C100A949086033E02069E8B10120A7492E
:102150000860FFF773FD054606E0FFF76FFD401BC3
:10216000022801D9032047E79F48006800F00200D9
:102170000028F2D09C48006820F0F800616940EA2D
:10218000C1009949086013E0002098490860FFF7F2
:1021900055FD054606E0FFF751FD401B022801D919
:1021A000032029E79048006800F002000028F2D1DF
:1021B000207800F0080008282DD1A069B8B10120CE
:1021C0008B490860FFF73AFD054606E0FFF736FD4C
:1021D000401B022801D903200EE78348406A00F023
:1021E00002000028F2D0012000F00AFC13E00020D9
:1021F0007F490860FFF722FD054606E0FFF71EFD58
:10220000401B022801D90320F6E67748406A00F017
:1022100002000028F2D1207800F00400042873D1D5
:1022200000277148C06900F0805070B900BF6E4847
:10223000C06940F080506C49C8610846C06900F030
:102240008050009000BF00BF01276A48006800F47A
:102250008070B0B96748006840F4807065490860D4
:10226000FFF7ECFC054606E0FFF7E8FC401B64289E
:1022700001D90320C0E65F48006800F480700028A0
:10228000F2D000BFE068012806D15748006A40F04C
:1022900001005549086227E0E06858B95248006AD1
:1022A00020F00100504908620846006A20F004004E
:1022B000086219E0E06805280BD14B48006A40F03D
:1022C0000400494908620846006A40F001000862BB
:1022D0000AE04548006A20F00100434908620846C8
:1022E000006A20F00400086200BFE068A0B1FFF7B8
:1022F000A5FC054609E0FFF7A1FC401B41F288312F
:10230000884202D9032077E622E03748006A00F0CD
:1023100002000028EFD012E0FFF790FC054608E02D
:10232000FFF78CFC401B41F28831884201D9032021
:1023300062E62D48006A00F002000028F0D1012F6B
:1023400005D12948C06920F080502749C86100BFE5
:10235000E069C8B32448406800F00C00082860D049
:10236000E069022848D1002020490866FFF766FC92
:10237000054606E0FFF762FC401B022801D9032056
:102380003AE61948006800F000700028F2D1206A8F
:10239000B0F5803F07D11448406820F40030A168B0
:1023A000084311494860D4E9080108430E494968C7
:1023B00021F4741108430C49486001200B49086658
:1023C000FFF73CFC054607E03DE0FFF737FC401B0C
:1023D000022801D903200FE60348006800F00070CE
:1023E0000028F2D02FE0000000100240000042421E
:1023F0008004424200700040002014490866FFF744
:102400001DFC054606E0FFF719FC401B022801D918
:102410000320F1E50E48006800F000700028F2D1BA
:1024200011E0E069012800D1E6E50948466806F4B4
:102430008031206A814204D106F47011606A8142C1
:1024400001D00120D8E50020D6E50000000042427E
:102450000010024070B504460E4615461CB1A06936
:10246000B0F5807F01D1012070BD94F8410028B9FA
:10247000002084F84000204600F020F804F1080114
:102480002068FFF7F1F83146A2682068FFF728F9C5
:102490002946236BD4E90102FFF7C4F8A16820683C
:1024A00050F8210040F00100A268216841F82200A4
:1024B000012084F841000020D6E7000010B586B066
:1024C000044600BF1E48406940F480701C494861C2
:1024D0000846406900F48070019000BF00BF00BF53
:1024E0000846806940F0200088610846806900F055
:1024F0002000019000BF00BF00BF0846806940F087
:10250000400088610846806900F04000019000BFEB
:1025100000BF4CF20370029002200390012004904F
:102520000320059002A90748FFF7D0F94FF6807005
:10253000029002A90448FFF7C9F906B010BD0000D7
:10254000001002400014014000180140042808D186
:102550004FF0E021096941F004014FF0E0221161E0
:1025600007E04FF0E021096921F004014FF0E0227B
:102570001161704770B504462546681EB0F1807F32
:1025800001D301200FE0681E4FF0E02148610F21C8
:102590004FF0FF3000F0D8FB00204FF0E0218861C1
:1025A00007200861002070BD704700002DE9F0474A
:1025B0000446206805682068C668206847694FF0AF
:1025C0000008C14605F00F08B8F1000F0AD105F068
:1025D000200038B106F0200020B1204600F050FA6B
:1025E000BDE8F087B8F1000F71D007F0010018B90D
:1025F00006F4907000286AD005F0010030B106F4AE
:10260000807018B1E06B40F00100E06305F0040059
:1026100030B107F0010018B1E06B40F00200E06358
:1026200005F0020030B107F0010018B1E06B40F096
:102630000400E06305F0080048B106F0200010B97E
:1026400007F0010018B1E06B40F00800E063E06BB8
:1026500068B305F0200028B106F0200010B1204634
:1026600000F00EFA20684069C0F38019E06B00F0BA
:10267000080010B9B9F1000F22D0204600F0E0F9AF
:102680002068406900F04000B0B12068406920F047
:10269000400021684861606B50B11848616B486325
:1026A000606BFFF73FF810B1606B416B88470CE03F
:1026B0002046FFF779FF08E02046FFF775FF04E0AA
:1026C0002046FFF771FF0020E06389E7FFE705F090
:1026D000800030B106F0800018B1204600F09EFA6C
:1026E0007EE705F0400030B106F0400018B120460A
:1026F00000F0B6F974E700BF72E700002D2A000869
:1027000010B504460CB9012010BDA06900B100E06D
:1027100000BF94F8390028B9002084F8380020461A
:1027200000F028F8242084F839002068C06820F4DC
:1027300000502168C860204600F0F2F92068006966
:1027400020F49040216808612068406920F02A0048
:10275000216848612068C06840F400502168C86062
:102760000020E063202084F8390084F83A0000203B
:10277000CAE7000010B586B00446284920688842A0
:102780004AD100BF00BF2648806940F004002449B8
:1027900088610846806900F00400019000BF00BF16
:1027A00000BF00BF00BF0846806940F00400886198
:1027B0000846806900F00400019000BF00BF00BF20
:1027C00000BF00BF0846806940F480408861084629
:1027D000806900F48040019000BF00BF00BF481531
:1027E000029002200390012004900320059002A98A
:1027F0000C48FFF76BF84FF48060029000200390C4
:1028000002A90848FFF762F82520FFF758FA0322CB
:1028100011462520FFF763FA06B010BD00380140CD
:10282000001002400008014010B5034693F83A003A
:1028300020282FD101B10AB9012010BD00BF93F8A3
:102840003800012801D10220F7E7012083F8380081
:1028500000BF99629A85DA850020D863222083F828
:102860003A0000BF002083F8380000BF1868C06835
:1028700040F480701C68E0601868406940F0010016
:102880001C6860611868C06840F020001C68E06047
:102890000020D2E70220D0E71D4A0168914236D1DC
:1028A0001C49098801F4004189BB1A49098801F4CF
:1028B000804171B1184909780A2903D00021154ACD
:1028C000118024E01349098841F40041114A118024
:1028D0001DE0114909780D2906D10E49098841F4F6
:1028E00080410C4A118012E00B490978094A12888C
:1028F000C2F30D02094B995406490988491C054A3F
:10290000118011460988C72901DD00211180704717
:10291000003801400C0000200E0000205C00002068
:102920002DE9F84F04460E46174699464FF0000A27
:1029300094F8390020285AD106B117B90120BDE812
:10294000F88F00BF94F83800012801D10220F6E783
:10295000012084F8380000BF0020E063212084F8C3
:102960003900FFF76BF98246A784E784A068B0F5C9
:10297000805F04D1206910B90025B04602E03546D9
:102980004FF0000800BF002084F8380000BF1BE0B3
:102990005346002280212046CDF8009000F06EF9C9
:1029A00008B10320CBE745B9B8F80000C0F3080030
:1029B0002168486008F1020803E02878216848602F
:1029C0006D1CE08C401EE084E08C0028E0D1534672
:1029D000002240212046CDF8009000F04FF908B1C8
:1029E0000320ACE7202084F839000020A7E702206C
:1029F000A5E7704700BFFEE700BFFEE77047000095
:102A000008B508490968C9084FF47A72B1FBF2F1B8
:102A10004143009100BF00BF00994A1E0092002967
:102A2000F9D108BD000000207047704770B5054619
:102A30006C6A0020E085E0842046FFF7B5FD70BD9C
:102A40000168C96821F490710268D1600168496920
:102A500021F0010102685161202180F83A1070478D
:102A600010B504462068C06820F040002168C860A6
:102A7000202084F839002046FFF7BBFF002010BD5E
:102A800070B5044694F83A00222847D1A068B0F502
:102A9000805F0CD1206950B90025A66A2068406883
:102AA000C0F308003080A06A801CA06215E0A56A0F
:102AB0000026A068B0F5805F03D0A06828B920691F
:102AC00018B920684068287004E02068406800F069
:102AD0007F002870A06A401CA062E08D401E80B27A
:102AE000E085C8B92068C06820F020002168C8606F
:102AF0002068C06820F480702168C8602068406940
:102B000020F0010021684861202084F83A00204626
:102B1000FFF7C2FE002070BD0020FCE70220FAE7AC
:102B200070B504462168096921F44051E2681143F7
:102B3000226811612269A1681143626941EA0205B4
:102B40002168C96841F20C62914329432268D1602F
:102B50002168496921F44071A269114322685161D9
:102B60002D4A2168914202D1FFF7E8F901E0FFF711
:102B7000D5F900EBC00101EB001162689200B1FBD6
:102B8000F2F100EBC00202EB001263689B00B2FBA3
:102B9000F3F26423B2FBF3F202EBC20303EB021283
:102BA000A1EB8201322202EB01116422B1FBF2F1AE
:102BB00001F0F00100EBC00202EB001263689B0021
:102BC000B2FBF3F26423B2FBF3F201EB021200EB6F
:102BD000C00101EB001163689B00B1FBF3F100EB56
:102BE000C00303EB00136668B600B3FBF6F364267C
:102BF000B3FBF6F303EBC30606EB0313A1EB830170
:102C0000322303EB01116423B1FBF3F101F00F0157
:102C100011442268916070BD00380140014691F86E
:102C20003900212828D18868B0F5805F0BD1086968
:102C300048B90A6A1088C0F308000B685860086A2F
:102C4000801C086205E00B6A581C086218780B6843
:102C50005860C88C401E80B2C88458B90868C068E3
:102C600020F080000B68D8600868C06840F0400021
:102C70000B68D860002070470220FCE72DE9F04186
:102C800004460D4617469846069E21E0701CF8B192
:102C90002EB1FEF7D3FFA0EB0800B04218D9206890
:102CA000C06820F4D0702168C8602068406920F0B6
:102CB000010021684861202084F8390084F83A0036
:102CC00000BF002084F8380000BF0320BDE8F08179
:102CD000206800682840A84201D1012000E00020BF
:102CE000B842D3D00020F1E710B50648FFF75EFCEC
:102CF00000BF012204490348FFF796FD0028F8D1E0
:102D000010BD0000240100200E00002000BFFEE7DF
:102D1000490050EAC12018BF04204A0D18BF40F0F6
:102D2000010040F2FF72B2EB515F08BF40F00200B9
:102D3000012808BF0520704702480068C0F3022040
:102D4000704700000CED00E010B5002804DB0A0716
:102D5000130E054A135406E00A07140E034A00F046
:102D60000F031B1FD45410BD00E400E018ED00E079
:102D70002DE9F0414F1E00EBC7010446D1E90001E7
:102D800015461E4637F006020DD02A46334607F098
:102D900071FD7F1E04EBC703D3E9002307F0DAFAC5
:102DA00037F00602F1D1022F25D0042F13D0062FC1
:102DB00018BFBDE8F0812A46334607F05BFDD4E931
:102DC0000A2307F0C7FA2A46334607F053FDD4E931
:102DD000082307F0BFFA2A46334607F04BFDD4E933
:102DE000062307F0B7FA2A46334607F043FDD4E935
:102DF000042307F0AFFA2A46334607F03BFDD4E937
:102E0000022307F0A7FA2A46334607F033FDD4E938
:102E10000023BDE8F04107F09DBA012208F0D7BBBE
:102E200007F098BA002213461046114607F04EBB31
:102E3000024A0020110708F0CABB000001FDFFFF95
:102E400030380A2801D2012070470020704700BFA7
:102E5000704700002DE9FE4F06460F4600256846E4
:102E600002F04AFA002442E056F8240057F82410F1
:102E7000A0EB010ABAF1000F01DB514601E0CAF1F3
:102E80000001084608F09CF983464FF08F4108F096
:102E900065F880465DF82400002108F021F916D07D
:102EA0005DF82410404608F059F882464FF07E51F4
:102EB00008F0E4FA814629F0004A0F48416A50467A
:102EC00008F0AAFA12D20120A04005430EE00A48F9
:102ED000C169404608F0A0F905D30748016A404699
:102EE00008F09AFA02D20120A0400543641C032C8A
:102EF000BADB2846BDE8FE8F1CE600082DE9F04D40
:102F00008D4F21F0004A86B005460C46BA452ADBB3
:102F1000AAEB070028430AD08848824501DC1AD171
:102F2000CDB106B02846BDE8F04DFFF776BF844A24
:102F3000844B284607F09EFC07460E46824A834B88
:102F40002846214607F096FC06B03A463346BDE8CF
:102F5000F04D07F0FFB90120FDF73FFB06B0BDE8DB
:102F6000F04DFFF75FBF7A48824542DABAF1795FE8
:102F70000BDA2846FFF7CCFE042808BFFFF758FFFE
:102F8000284606B02146BDE8F08D2A460B4610467D
:102F900007F070FC834602466E480E460B4606213B
:102FA0007844FFF7E5FE5A46334607F063FC804657
:102FB00069488A465A46334604217844FFF7D8FECA
:102FC0005A46334607F056FC00223B4607F0C2F94A
:102FD00002460B464046514607F078FA2A462346F9
:102FE00007F048FC06B02A462346BDE8F04D07F03E
:102FF000B1B9284624F0004100223D463B4607F087
:1030000037FD4FF0FF3208F0E2FA06460246534819
:103010000F460B4606217844FFF7AAFE32463B4690
:1030200007F028FCCDE900014D4832463B4604211B
:103030007844FFF79DFE32463B4607F01BFC00221A
:103040002B4607F087F9834602913046394607F050
:10305000CBF8804643480D46504517DCDDE90001BA
:103060005A46029B07F032FA42462B4607F002FC12
:1030700042462B4607F06EF9012208F0A8FA304AC2
:10308000304B07F0E7FD304A304B4CE04FF0000A80
:1030900052460B46404607F05DF9CDE90310524613
:1030A0002B461046194607F0E5FB32463B4607F033
:1030B000DFFCDDE9033207F009FA06460F46DDE9D9
:1030C00000015A46029B07F001FA83460091012253
:1030D0003046394608F07BFA194A1A4B07F0C8FC0B
:1030E00006460F4601224046294608F070FA5A4625
:1030F000009B07F0BFFB32463B4607F0ABFD0646A0
:103100000F4601225046294608F061FA0E4DDFF8BD
:1031100058802A46434607F0ABFC32463B4607F050
:10312000A7FC2A46434607F0A3FC002CD8BF81F039
:10313000004106B0BDE8F08D0000F03F0000F07FD8
:10314000075C143326A6913C182D4454FB21F93F0B
:103150000000E03FC4C20000DAC200004EC200001E
:1031600064C200003333EF3FFB21E93F2DE9F84F04
:1031700004460D4621F0004000917349814211DC64
:103180007249884201DC06D12CB120462946BDE8AF
:10319000F84FFFF742BE6E48002DCCBF6D496E4917
:1031A000BDE8F88F6D49814211DD6D498142D8BF7C
:1031B0004FF0FF366DDD20462946FFF7A9FD0428B4
:1031C00008BFFFF735FE20462946BDE8F88F654960
:1031D000654F25F00045814233DD6449814219DDA8
:1031E000002632464FF080432046294607F0B2F8C9
:1031F00080468A4601222046294608F0E8F9002246
:103200003B4607F027FD4246534607F05FF9044668
:103210000D463EE001260022BA463B46204629469E
:1032200007F098F880460F4600225346204629466C
:1032300007F010FD42463B4607F048F904460D46AC
:1032400027E04B4981421BDDDFF828A1022600223E
:1032500053462046294607F00DFB00223B4607F067
:1032600079F880460F46002253462046294607F04B
:10327000F1FC42463B4607F029F904460D4608E0BA
:10328000032622462B4600203B4907F01FF904463F
:103290000D4622462B461046194607F0EBFA8B46A0
:1032A000824602460B4607F0E5FA074602463348D7
:1032B00088460B4606217844FFF75AFD52465B4686
:1032C00007F0D8FA82462E488B463A4643460521F7
:1032D0007844FFF74DFD3A46434607F0CBFA0246E5
:1032E0000B46002E504659460CDA07F033F82246BA
:1032F0002B4607F0BFFA01B022462B46BDE8F04F3F
:1033000007F0B6BB07F026F822462B4607F0B2FAC4
:103310001C4A7A4402EBC603D3E9002307F09AFC67
:1033200022462B4607F096FC174A7A4402EBC60366
:10333000D3E9002307F09CFB009A002AB8BF81F074
:103340000041BDE8F88F0000000010440000F07F4D
:10335000182D4454FB21F93FFB21F9BF0000DC3F4D
:103360000000203E0000F33F0000F03F0000E63F79
:10337000008003400000F83F0000F0BF66C000007E
:1033800024C00000C2BF00008ABF00002DE9F04D3C
:103390009446CCF1000423F000464CEA0404594F53
:1033A00046EAD4749A46884621F00042BC4206D8C8
:1033B000454240EA050442EAD474BC4204D9BDE85F
:1033C000F04D6246FFF72CBDAAF14055A5F17F658F
:1033D00055EA0C040BD0022404EAAA744A4DDFF823
:1033E0002CE144EAD87452EA000B04D00CE0BDE8AA
:1033F000F04DFFF7BBBE002C14BF012CBDE8F08DD3
:10340000022C30D0032C32D056EA0C0B0AD0BE422C
:1034100020D1BA4209D126F0804622F080423346BC
:10342000114617E000291ADB25E0DFF8E4B0FB4481
:10343000002C04BFDBE90001BDE8F08D012C02BFC8
:10344000DBE9000181F00041BDE8F08D022C0AD0DB
:10345000032C0CD0BA4212D1B8F1000F0BDA2A4873
:103460002C49BDE8F08D28462B49BDE8F08D284653
:103470007146BDE8F08D24482849BDE8F08D921BC7
:1034800012153C2AC4BF204F244E10DCBAF1000FA5
:10349000BEBF12F13C0F00273E4608DB624607F034
:1034A00015F821F00041FFF761FE07460E4694B182
:1034B000012C08BF86F000460DD0194A194B022C8A
:1034C0003846314615D007F0C5FB2A46BDE8F04D19
:1034D000114B07F0BFBB002213463846314607F0B8
:1034E0004DF904BF0220FDF778F838463146BDE8B3
:1034F000F08D07F0AFFB2A46BDE8F04D064B07F014
:10350000B7BA00000000F07F182D4454FB2109C019
:103510001EBF0000FB21F9BFFB210940FB21F93F41
:10352000075C143326A6A13C2DE9F04F99B0044660
:103530000D4616460027B846B946BA4612A814A941
:1035400013AB0EAACDE9001015A917A801F06CFA6B
:1035500018B1012019B0BDE8F08FBDF8500000F49B
:10356000807000287ED00E9807F02AFE83464FF028
:103570009D4107F0F3FC07460F9807F021FE8346B4
:103580004FF09D4107F0EAFC8046109807F018FEC6
:1035900083464FF09D4107F0E1FC8146119807F00A
:1035A0000FFE83464FF09D4107F0D8FC8246394616
:1035B0004FF0804007F064FE4946059007F060FE3A
:1035C000414607904FF0404007F05AFE51460590A3
:1035D00007F056FE0690079907F052FC834607F065
:1035E00023FCCDE90801FFF789FC4FF06632544B0C
:1035F000CDE90A0107F03EF9CDE90C0106F078FEAD
:10360000206049464FF0804007F03AFE494602905C
:1036100007F036FE414604904FF0404007F030FE80
:103620004146029007F02CFE0390049907F026FF14
:1036300083464FF07E5107F023FC059007F0F4FB22
:10364000CDE9080139464FF0804007F019FE4146A8
:10365000039007F015FE494604904FF0804007F0B4
:103660000FFE00E068E05146039007F009FE834634
:10367000049907F005FC059007F0D6FBCDE906019B
:10368000DDE90823FFF782FE4FF066322C4BCDE9CF
:103690000A0107F0EFF8CDE90C0106F029FE2860D9
:1036A0005146504607F0ECFD49460490484607F065
:1036B000E7FD41460390404607F0E2FD39460190A0
:1036C000384607F0DDFD0090019907F0D9FB029024
:1036D000039907F0D3FE8346049907F0CFFE0590C7
:1036E00007F0A2FBCDE908015146384607F0C8FDB6
:1036F00049460490404607F0C3FD0390049907F043
:10370000BFFB4FF08041059007F0BAFD834607F0FC
:103710008BFBCDE90601DDE90823FFF737FE4FF00B
:103720006632074BCDE90A0107F0A4F8CDE90C0198
:1037300006F0DEFD306001E001200BE7002009E724
:1037400066A64C402DE9F041002005F0D5FDC4B23D
:10375000782006F0BDFB2044C4B2782005F0BAFC06
:103760002044C4B2642006F065FB2044C4B201F0DA
:103770004FF92044C4B2194D284602F0D5F8064648
:10378000E81C02F0D1F846EAC00086B2A81D02F09B
:10379000CBF846EA801086B200BF3746384601F0C3
:1037A00093FB2044C4B240F2731000F0D9FF2044D0
:1037B000C4B2642001F0B8FA2044C4B2012006F07B
:1037C00035FA2044C4B200F0E3FA2044C4B214B184
:1037D0000120BDE8F0810020FBE700005000002040
:1037E0002DE9FC4104460D4616466B4606223B2158
:1037F000682000F07DFA0746BFB99DF801009DF8EA
:10380000001040EA012000B220809DF803009DF8DE
:10381000021040EA012000B228809DF805009DF8C2
:10382000041040EA012000B230803846BDE8FC8137
:1038300010B504460CB9012010BDFEF7FFF9206059
:103840000020F9E72DE9FC4104460D4616466B467B
:1038500006224321682000F04BFA0746BFB99DF8C5
:1038600001009DF8001040EA012000B220809DF880
:1038700003009DF8021040EA012000B228809DF864
:1038800005009DF8041040EA012000B2308038465F
:10389000BDE8FC812DE9F84F044600266B46022264
:1038A0004121682000F024FA0546D5B99DF80100B1
:1038B0009DF8001040EA012006B2304607F080FC77
:1038C0008246094907F04AFB8146084907F0D8FAC1
:1038D0008046074907F0D4FC074607F035FC00B2E4
:1038E00020802846BDE8F88F0000AA43B81E124287
:1038F0000000C84200B585B00020019002900390FE
:10390000049000BF00BF1D48806940F004001B49BF
:1039100088610846806900F00400009000BF00BF85
:1039200000BF0846806940F0010088610846806950
:1039300000F00100009000BF00BF00BF10494868C0
:1039400020F0E06040F00070486000BF00BF4FF41E
:10395000004001900120029003900320049001A9EF
:103960000848FDF7B3FF00BF00224FF400410548AF
:10397000FEF75EF900BF05B000BD00000010024078
:10398000000001400008014010B500BF00224FF4C4
:1039900000611148FEF74CF900BF00F01FF800BFAE
:1039A000012291020C48FEF743F900BF00F016F81F
:1039B00000BF00224FF480610748FEF739F900BFCD
:1039C00000F00CF800BF0122D1020348FEF730F9E5
:1039D00000BF00F003F810BD000C014010B502203C
:1039E00000F024FB10BD000000B585B00020019060
:1039F00002900390049000BF00BF1A48806940F015
:103A00000800184988610846806900F008000090A5
:103A100000BF00BF00BF00BF00BF0846806940F084
:103A2000080088610846806900F00800009000BF27
:103A300000BF00BF081501900120029003900320F1
:103A4000049001A90848FDF741FF4FF40060019080
:103A50001120029001A90448FDF738FF00F0B6F8E4
:103A600005B000BD00100240000C014010B500BFC1
:103A70000122D1020C48FEF7DBF800BFFFF7AEFFD2
:103A800000BF012291020848FEF7D2F800BFFFF7FD
:103A9000A5FF00BF00224FF480610348FEF7C8F87D
:103AA00000BFFFF79BFF10BD000C014070B505463D
:103AB000002400261EE06006040E00BF01229102D1
:103AC0001148FEF7B5F800BFFFF788FF4FF400611B
:103AD0000D48FEF79BF808B1601CC4B200BF00227D
:103AE0004FF480610848FEF7A3F800BFFFF776FFA8
:103AF000701CC6B2082EDEDB15B9FFF7B7FF01E078
:103B0000FFF742FF204670BD000C014070B504462F
:103B1000002526E000BFE00928B10122D1021648A5
:103B2000FEF786F805E000224FF400611248FEF728
:103B30007FF800BFFFF752FF00BF012291020E483D
:103B4000FEF776F800BFFFF749FF00BF00224FF4F1
:103B500080610948FEF76CF800BF6006040E681C1F
:103B6000C5B2082DD6DB00BF0122D1020248FEF704
:103B70005FF800BF70BD0000000C014010B500BF31
:103B80000122D1021048FEF753F800BF00BF012206
:103B900091020D48FEF74CF800BFFFF71FFF00BF72
:103BA00000224FF400610848FEF742F800BFFFF71B
:103BB00015FF00BF00224FF480610348FEF738F87C
:103BC00000BFFFF70BFF10BD000C014010B500BF98
:103BD00000224FF400610C48FEF72AF800BFFFF7FF
:103BE000FDFE00BF012291020748FEF721F800BF49
:103BF000FFF7F4FE00BF0122D1020348FEF718F8D8
:103C000000BFFFF7EBFE10BD000C014070B50024B3
:103C1000002500BF0122D1021548FEF709F800BFB8
:103C2000FFF7DCFE00BF012291021148FEF700F809
:103C300000BFFFF7D3FE07E0601CC4B2FA2C03DD1F
:103C4000FFF7C4FF012506E04FF400610848FDF7C7
:103C5000DDFF0028F0D100BF00BF00224FF48061DB
:103C60000348FDF7E5FF00BFFFF7B8FE284670BD2B
:103C7000000C014008B5FFF73DFEFFF7B5FE00F070
:103C800022F9032000F0D7F8002000F0CBF8322012
:103C900000F0F7F800223821682000F05BF90022DC
:103CA0006A21682000F056F900222321682000F0E4
:103CB00051F980223721682000F04CF96A467521BD
:103CC000682000F05AF89DF80000682801D0012013
:103CD00008BD01226B21682000F03CF900226C2114
:103CE000682000F037F9322000F0CBF80020EFE731
:103CF0002DE9F04105460F4614461E46FFF73EFFEC
:103D0000002141EA4501C8B2FFF700FFFFF77EFF3F
:103D1000012804D1FFF75AFF0220BDE8F0813846A0
:103D2000FFF7F4FEFFF772FF012803D1FFF74EFF04
:103D30000220F2E7FFF722FF012101EB4501C8B2A3
:103D4000FFF7E4FEFFF762FF012803D1FFF73EFF14
:103D50000220E2E70BE0012C01DD012100E000215F
:103D60000846FFF7A3FE3070601EC4B2761C002C1C
:103D7000F1D1FFF72BFF0020CFE770B505460E46C7
:103D800014462346012231462846FFF7B1FF70BD95
:103D900070B588B002A905A805F0D2FD0446032C31
:103DA0003ED101A805F048FA059807F009FA064641
:103DB000019907F065FA054607F0C6F905900698DF
:103DC00007F0FEF90646019907F05AFA054607F092
:103DD000BBF90690079807F0F3F90646019907F03A
:103DE0004FFA054607F0B0F9079005A800F0D4FF98
:103DF000684605F0CDF9BDF80010029848430290DE
:103E0000BDF80010039848430390BDF800100498D3
:103E10004843049002A800F0EDFE002008B070BDF9
:103E20000120FBE710B50446E006020E1C216820C5
:103E300000F090F810BD10B50446E006020E1B21FC
:103E4000682000F087F810BD70B50546BC2D01DB79
:103E5000012410E0622D01DB02240CE02A2D01DB9D
:103E6000032408E0142D01DB042404E00A2D01DB07
:103E7000052400E0062422461A21682000F06AF892
:103E800070BD70B50446B4F57A7F01DD4FF47A74E5
:103E9000042C00DA04244FF47A7090FBF4F0401EF6
:103EA000C6B232461921682000F054F805460DB11B
:103EB000284670BD6010FFF7C7FF05460DB12846C4
:103EC000F7E70020F5E710B580226B21682000F0AD
:103ED00041F8642000F08EF800226B21682000F089
:103EE00039F810BD2DE9F04105460E4617469846B3
:103EF000FFF744FE002141EA4501C8B2FFF706FE84
:103F0000FFF784FE012804D1FFF760FE0220BDE820
:103F1000F0813046FFF7FAFDFFF778FE012803D164
:103F2000FFF754FE0220F2E700240DE018F8040029
:103F3000FFF7ECFDFFF76AFE012803D1FFF746FE0D
:103F40000220E4E7601CC4B2BC42EFDBFFF73EFE98
:103F50000020DCE737B504460D4602AB01222946B6
:103F60002046FFF7BFFF3EBD2DE9F0410446E07853
:103F700000F0C006E07800F03F05607800F0010036
:103F800098B1EF102846E91705EB5171C910A5EB60
:103F9000C101491C01F0FF080B48006820B10A4824
:103FA000414602683846904700BF607800F008003C
:103FB00030B10548406818B1B011034A51688847CC
:103FC0000020BDE8F0810000BC01002010B50446CF
:103FD00000204FF0E0210861FEF7B8FA2046E11713
:103FE00004EB5171C1F3CF01014A118010BD0000F3
:103FF0000400002070B504464FF47A7094FBF0F58D
:1040000094FBF0F100FB114603E0074800F00EF8C6
:104010006D1E002DF9D12EB14FF47A7106FB01F01F
:1040200000F004F870BD000040420F000146114A44
:1040300012884A434FF0E0235A6100229A611A46DF
:10404000126942F001021A6100BF4FF0E0221069CC
:1040500000F001021AB100F48032002AF5D04FF0CE
:10406000E022126922F001024FF0E0231A610022DF
:104070009A617047040000202DE9FE4380460E46F9
:1040800017461D467F49404607F0FAF8814607F07B
:104090005BF804B2002C0EDA604204B21F207AA151
:1040A00010221346CDE900210290082282213C20F3
:1040B00004F024FF0BE01F2074A110221346CDE969
:1040C00000210290082282213C2004F017FF0A20E0
:1040D00094FBF0F91F20102103234A46CDE900107C
:1040E0008221442004F0BEFE0A2094FBF0F100FB84
:1040F00011491F20102101234A46CDE900108221D9
:10410000642004F0AFFE5F49304607F0B9F88146FD
:1041100007F01AF804B2002C0EDA604204B21F2035
:1041200059A110221346CDE90021029008229721BF
:104130003C2004F0E3FE0BE01F2054A110221346A4
:10414000CDE900210290082297213C2004F0D6FE00
:104150000A2094FBF0F91F20102103234A46CDE9E1
:1041600000109721442004F07DFE0A2094FBF0F11A
:1041700000FB11491F20102101234A46CDE9001000
:104180009721642004F06EFE3E49384607F078F827
:10419000814606F0D9FF04B2002C0EDA604204B268
:1041A0001F2039A110221346CDE9002102900822D8
:1041B000AC213C2004F0A2FE0BE01F2033A1102212
:1041C0001346CDE9002102900822AC213C2004F0E6
:1041D00095FE0A2094FBF0F91F20102103234A4684
:1041E000CDE90010AC21442004F03CFE0A2094FBF1
:1041F000F0F100FB11491F20102101234A46CDE9AF
:104200000010AC21642004F02DFE2C46002C0EDAA8
:10421000604204B21F201CA110221346CDE90021E8
:1042200002900822C1213C2004F068FE0BE01F2010
:1042300016A110221346CDE9002102900822C121C7
:104240003C2004F05BFE642094FBF0F91F20102159
:1042500003234A46CDE90010C121442004F002FEA8
:104260000A2094FBF0F100FB11491F2010210123CB
:104270004A46CDE90010C121642004F0F3FDBDE8F9
:10428000FE830000000020412D00000020000000FF
:104290000EB51F2017A110221346CDE90021029070
:1042A00098228221142004F029FE1F2016A110223A
:1042B0001346CDE90021029098229721142004F0A2
:1042C0001DFE1F2015A110221346CDE900210290EA
:1042D0009822AC21142004F011FE1F2014A11022FA
:1042E0001346CDE900210290D822C121142004F008
:1042F00005FE0EBD504954203A202020202E2020BB
:104300006465677265657300524F4C203A20202027
:10431000202E20206465677265657300594157201F
:104320003A202020202E2020646567726565730086
:1043300054454D503A202020202E2020646567727D
:104340006565732043656C73697573002DE9F04FE3
:1043500085B004460D4616461F46DDE910ABDDE983
:104360000E89200A8DF80000E0B28DF80100280ABD
:104370008DF80200E8B28DF80300300A8DF80400D1
:10438000F0B28DF80500380A8DF80600F8B28DF805
:1043900007004FEA18208DF8080008F0FF008DF89C
:1043A00009004FEA19208DF80A0009F0FF008DF886
:1043B0000B004FEA1A208DF80C000AF0FF008DF870
:1043C0000D004FEA1B208DF80E000BF0FF008DF85A
:1043D0000F001298000A8DF810001298C0B28DF8E4
:1043E000110012226946022000F060F905B0BDE814
:1043F000F08F2DE9FE4305460E4617461C46DDE9C3
:104400000A89280A8DF80000E8B28DF80100300A08
:104410008DF80200F0B28DF80300380A8DF8040020
:10442000F8B28DF80500200E8DF80600200C8DF8EE
:104430000700200A8DF80800E0B28DF809008DF819
:104440000A808DF80B900C226946012000F02EF9AD
:10445000BDE8FE8390B04FF0000AFFF70BFC044666
:104460006CB162A0FBF70AFF08E000BF202166489C
:10447000FDF7D4FB00BFC820FFF7BCFDF5E7FFF751
:1044800061F904466CB161A0FBF7F8FE08E000BFDB
:1044900020215D48FDF7C2FB00BFC820FFF7AAFD41
:1044A000F5E7FFF7F5FE9FE0002001F0DDFA814619
:1044B000B9F1010F0ED1CAF1010000F0FF0ABAF103
:1044C000000F04D14FF4E13005F0E0FE02E0574860
:1044D00005F0DCFE0DAA0EA90FA8FFF725F804468B
:1044E0000AAA0BA90CA8FFF77BF92044C4B207AABB
:1044F00008A909A8FFF7A6F92044C4B206A8FFF747
:10450000C9F92044C4B2002C6ED1BAF1000F2FD1EA
:104510000D9806F089FC05460E460E9806F084FCC0
:10452000074688460F9806F07FFC02460B46CDE909
:104530000078CDE90256CDE904013DA0FBF79EFECF
:10454000BDF92830BDF92C20BDF9301041A0FBF792
:1045500095FEBDF91C30BDF92020BDF9241046A000
:10456000FBF78CFEBDF918104CA0FBF787FE34E07A
:104570004D490D9806F084FE804606F0E5FD05B233
:1045800049490F9806F07CFE804606F0DDFD06B234
:1045900045490E9806F074FE804606F0D5FD07B238
:1045A0000020009003462A46314601903846FFF726
:1045B00020FF0020BDF91C30CDE9013003900490AC
:1045C000BDF920000090BDF92430BDF92820BDF9C7
:1045D0002C10BDF93000FFF7B9FEBDF91830DDE948
:1045E0000D210F98FFF748FD5EE7000041544B2D69
:1045F0004D533630353020696E6974206661696CC0
:104600006564210D0A000000000C014041544B2D4F
:104610004D533630353020444D5020696E6974203A
:104620006661696C6564210D0A00000020A1070025
:104630007069743A20252E32662C20726F6C3A20F5
:10464000252E32662C207961773A20252E32662C71
:10465000200000006163635F783A2025642C2061AC
:1046600063635F793A2025642C206163635F7A3A43
:104670002025642C200000006779725F783A20259D
:10468000642C206779725F793A2025642C20677941
:10469000725F7A3A2025642C2000000074656D70EA
:1046A0003A2025640D0A00000000C842F0B589B028
:1046B00006460F4614461C2C01DD09B0F0BD002152
:1046C00001AA201D1154AA208DF804008DF80500C0
:1046D0008DF806608DF80740002505E0795D281DFE
:1046E00001AA1154681CC5B2A542F7DB00250AE0F7
:1046F00001A9201D085C495D0844C1B201AA201D22
:104700001154681CC5B2201D8542F1DB4FF0FF3308
:10471000621D01A90248FEF703F900BFCDE70000C2
:104720002401002038B5044664B120208DF8000033
:1047300028208DF8010030208DF8020038208DF8F7
:10474000030004E0A32204216846FBF7BEFE6A468C
:10475000042140F69E2005F023FC05F00DF838BD3D
:104760003EB5044602208DF80000CA208DF80100F5
:10477000E3208DF8020009208DF803006A46042129
:10478000682005F00DFCA3208DF8000004F0400027
:1047900048B1C0208DF80100C8208DF80200C22069
:1047A0008DF8030006E0A3208DF801008DF80200CB
:1047B0008DF8030004F4C07048B1C4208DF80400E3
:1047C000CC208DF80500C6208DF8060006E0A32059
:1047D0008DF804008DF805008DF80600A3208DF8F3
:1047E00007008DF808008DF809006A460A2140F696
:1047F000A72005F0D5FB04F0030018B120208DF8A8
:10480000000002E0D8208DF800006A46012140F641
:10481000B62005F0C5FB04F0200018B1012000F01F
:10482000ADF802E0002000F0A9F804F4C07008B36D
:1048300004F4807060B1B2208DF800008B208DF8F8
:104840000100B6208DF802009B208DF803000BE0DC
:10485000B0208DF8000080208DF80100B4208DF884
:10486000020090208DF803006A46042140F6A22041
:1048700005F096FB04F0010020B3F8208DF800004D
:104880006A4601214FF40B6005F08AFBFA210720EC
:1048900000F02EFC072000F0F5FB012000F015FCD5
:1048A000642000F0F5FC4FF4FA7000F004FDC8211C
:1048B000304800F0A5FB282000F0BEFB0A2000F0E5
:1048C000CEFB08E0D8208DF800006A4601214FF4A5
:1048D0000B6005F065FB04F0020018B1D9208DF8DB
:1048E000000002E0D8208DF800006A46012140F265
:1048F0003D7005F055FB04F0040018B1012000F0F4
:1049000069F802E0002000F065F804F0100018B12A
:104910000120FFF707FF02E00020FFF703FF44F04C
:1049200008001549488104F027FF002012498873C8
:1049300004F0400018B10846807B801D887304F4A1
:10494000C07020B10C48807B801D0B49887304F037
:10495000140020B10848807B10300749887304F0A8
:10496000030020B10448807B001D034988730020A8
:104970003EBD000009E3CA02BC0100203EB504466A
:104980006CB10EA1D1E900208968CDE90020029127
:104990006A4609214FF4976005F002FB3EBD0AA26A
:1049A000D2E900109268CDE9010200916A4609211E
:1049B0004FF4976005F0F4FAF0E70000B8AAB38D61
:1049C000B4980D355D000000B8AAAAAAB088C3C586
:1049D000C700000038B5044664B1C0208DF800005F
:1049E000C2208DF80100C4208DF80200C6208DF889
:1049F000030004E08B2204216846FBF766FD6A464B
:104A0000042140F6982005F0CBFA04F0B5FE38BD3D
:104A100010B5C8234FF48062024940F6F63004F026
:104A20003FFD10BD44E600082DE9F04F8DB007466C
:104A3000884615469946DDE9166B00240020308033
:104A40006B49887B5A4605A904F0F6FD18B1601E33
:104A50000DB0BDE8F08F6648807A00F014000028A1
:104A600067D09DF8140000069DF8151040EA01403B
:104A70009DF8161040EA01209DF8171008432860A1
:104A80009DF8180000069DF8191040EA01409DF8B5
:104A90001A1040EA01209DF81B10084368609DF839
:104AA0001C0000069DF81D1040EA01409DF81E10F4
:104AB00040EA01209DF81F100843A8609DF82000DF
:104AC00000069DF8211040EA01409DF8221040EABE
:104AD00001209DF823100843E86004F11000C4B2DF
:104AE000286800140190686800140290A8680014F7
:104AF0000390E8680014049001984043029901FB78
:104B00000100039901FB0100049901FB010ABAF1BC
:104B1000706F02DBBAF1885F05DD04F02DFE002026
:104B20003080401E94E7B6F9000040F48070308079
:104B300000BF2F48807A00F0400020B305A9601C18
:104B4000085C095D40EA012000B2A8F8000005A950
:104B5000E01C095C05AAA01C105C41EA002000B220
:104B6000A8F8020005A9601D095C201D105C41EA3F
:104B7000002000B2A8F80400A01DC4B2B6F90000DD
:104B800040F0080030801A48408900F4C07008B333
:104B900005A9601C085C095D40EA012000B238806C
:104BA00005A9E01C095C05AAA01C105C41EA0020D4
:104BB00000B2788005A9601D095C201D105C41EAE7
:104BC000002000B2B880A01DC4B2B6F9000040F0C9
:104BD000700030800648807A00F0030018B105A903
:104BE0000819FFF7C1F94846FEF722FE00202FE71B
:104BF000BC01002070B588B0064601A804F0C8FAD0
:104C0000BDF804000021C90341EA5045C40300BFB8
:104C10004448007A00F0030056F82000059041480F
:104C2000007A00F0040010B10598404205903D481C
:104C3000007AC0F3C10056F8200006903948007A87
:104C400000F0200010B10698404206903548007AE6
:104C5000C0F3811056F8200007903248008900F414
:104C6000807010B10798404207900598C117A0FBCB
:104C7000042301FB043100FB0510810041EA92701E
:104C800005900698C117A0FB042301FB043100FB2B
:104C90000510810041EA927006900798C117A0FBA9
:104CA000042301FB043100FB0510810041EA9270EE
:104CB00007900598000E8DF808000598000C8DF8F7
:104CC00009000598000A8DF80A000598C0B28DF811
:104CD0000B000698000E8DF80C000698000C8DF85D
:104CE0000D000698000A8DF80E000698C0B28DF8E7
:104CF0000F000798000E8DF810000798000C8DF833
:104D000011000798000A8DF812000798C0B28DF8BC
:104D1000130002AA0C214FF4257005F041F908B0E8
:104D200070BD0000BC01002030B585B0044616A25D
:104D300007CA02AB07C3C82C03DD4FF0FF3005B034
:104D400030BDC82090FBF4F0401E85B2280A8DF8D3
:104D50000000E8B28DF801006A46022140F21620F8
:104D600005F01EF910B14FF0FF30E8E702AA0C2160
:104D700040F6C12005F014F910B14FF0FF30DEE726
:104D8000044884810020DAE7FEF2ABC4AAF1DFDF39
:104D9000BBAFDFDFBC0100201FB504464848007AE6
:104DA00000F0030054F8200001904548007A00F01C
:104DB000040010B10198404201904148007AC0F3CC
:104DC000C10054F8200002903D48007A00F0200015
:104DD00010B10298404202903948007AC0F3811025
:104DE00054F8200003903648008900F4807010B118
:104DF0000398404203903349019880FB0101800FE2
:104E000040EA810001902F49029880FB0110820046
:104E100042EA917002902B49039880FB01108200B6
:104E200042EA917003900198000E8DF800000198FD
:104E3000000C8DF801000198000A8DF8020001981D
:104E4000C0B28DF803006A4604214FF4747005F077
:104E5000A7F818B14FF0FF3004B010BD0298000E53
:104E60008DF800000298000C8DF801000298000AED
:104E70008DF802000298C0B28DF803006A46042142
:104E80004FF4757005F08CF810B14FF0FF30E3E788
:104E90000398000E8DF800000398000C8DF80100B7
:104EA0000398000A8DF802000398C0B28DF8030041
:104EB0006A4604214FF4767005F072F8CCE70000E2
:104EC000BC01002009E3CA0210B586B0044647A021
:104ED0000068039046A00068029046A00068019018
:104EE00045A00068009004F0030003A9085C8DF859
:104EF000140003A8C4F3C101405C8DF8150003A899
:104F0000C4F38111405C8DF8160004F0030002A97F
:104F1000085C8DF8100002A8C4F3C101405C8DF854
:104F2000110002A8C4F38111405C8DF8120005AA9B
:104F3000032140F2264005F033F818B14FF0FF305E
:104F400006B010BD04AA032140F22A4005F028F85B
:104F500010B14FF0FF30F3E70198059000980490EE
:104F600004F0040058B19DF8140040F001008DF8E1
:104F700014009DF8100040F001008DF8100004F0BE
:104F8000200058B19DF8150040F001008DF8150083
:104F90009DF8110040F001008DF8110004F48070BC
:104FA00058B19DF8160040F001008DF816009DF8EC
:104FB000120040F001008DF8120005AA03214FF401
:104FC000886004F0EDFF10B14FF0FF30B8E704AA9D
:104FD000032140F2314004F0E3FF10B14FF0FF3005
:104FE000AEE7064804810020AAE700004CCD6C0023
:104FF0000CC92C003656760026466600BC010020FF
:10500000F8B505460E464FF47A7095FBF0F000FBBC
:1050100006F4200E8DF80000200C8DF80100200A07
:105020008DF80200E0B28DF803006A4604214FF4C7
:10503000AE7004F0B5FFF8BD38B50446052094FB0A
:10504000F0F084B220128DF80000E0B28DF801007B
:105050006A4602214FF4AD7004F0A2FF38BD38B5A6
:105060000446052094FBF0F084B220128DF8000075
:10507000E0B28DF801006A4602214FF4AC7004F0F2
:105080008FFF38BD38B504460020009004F00100C1
:1050900020B19DF8000040F03000009004F00200C4
:1050A00020B19DF8000040F00C00009004F00400D6
:1050B00020B19DF8000040F0030000906A460121F5
:1050C0004FF4A47004F06CFF38BD38B50446012CD1
:1050D00001DA012402E0042C00DD0424601EC0B2C9
:1050E00000906A46012140F24F1004F059FF38BD8C
:1050F0002DE9FC4706460F4606F0070010B1B7F54C
:10510000C86F03DD4FF0FF30BDE8FC87384606F07E
:105110006FF88146594905F021FF8046684604F042
:1051200011F89DF80000022806D0042816D008289F
:1051300026D0102848D135E04FF08D41404606F08A
:105140009FF8814606F01CF884B24D49404606F0AF
:1051500097F8814606F014F885B238E04FF08C419C
:10516000404606F08DF8814606F00AF884B24549BB
:10517000404606F085F8814606F002F885B226E042
:105180004FF08B41404606F07BF8814605F0F8FF72
:1051900084B23D49404606F073F8814605F0F0FFC1
:1051A00085B214E04FF08A41404606F069F8814626
:1051B00005F0E6FF84B23549404606F061F88146C5
:1051C00005F0DEFF85B202E04FF0FF309CE700BF44
:1051D00020128DF80400E0B28DF8050028128DF839
:1051E0000600E8B28DF8070006F00100A0B101AAA0
:1051F00002214FF4EA7004F0D3FE10B14FF0FF30FB
:1052000082E70DF1060202214FF4927004F0C8FE0D
:1052100010B14FF0FF3077E706F00200A0B101AA0D
:1052200002214FF4EC7004F0BBFE10B14FF0FF30E0
:105230006AE70DF1060202214FF4947004F0B0FE0B
:1052400010B14FF0FF305FE706F00400A0B101AAF3
:1052500002214FF4EE7004F0A3FE10B14FF0FF30C6
:1052600052E70DF1060202214FF4967004F098FE09
:1052700010B14FF0FF3047E7002045E700004843FA
:10528000000040460000C045000040450000C0440A
:1052900038B50446052094FBF0F085B228128DF84D
:1052A0000000E8B28DF801006A4602214FF4EF7069
:1052B00004F076FE38BD38B50446052094FBF0F0C6
:1052C00085B228128DF80000E8B28DF801006A4618
:1052D00002214FF4ED7004F063FE38BD00BF054AB3
:1052E000126802F04002002AF9D0C2B2014B1B1D25
:1052F0001A607047003801407CB505462849496866
:10530000087801AB04220D21FEF7F2FC08B107205A
:105310007CBD9DF80700C0F301109DF8041001F05A
:10532000E00140EAE1008DF800009DF80700C0F3BD
:1053300081009DF8051001F0E00140EAE1008DF8E0
:1053400001009DF8070000F003009DF8061001F031
:10535000E00140EAE1008DF8020000241CE01DF8A5
:10536000040018B9002045F8240013E00D4845F862
:10537000240006E055F824000B4905F081FF45F8AC
:1053800024001DF80400401EC0B20DF804000028DF
:10539000F0D100BF601CC4B2032CE0DB0020B7E7F3
:1053A000240000207B14AE3E1D5A843F2DE9F04FAF
:1053B00087B005460C46914601208DF8100000206C
:1053C0008DF81100FE4A1268917CFD4A52681078EF
:1053D00004AB0222FEF786FD20B14FF0FF3007B08C
:1053E000BDE8F08FC820FEF705FE00208DF8100004
:1053F000F34A1268D17BF24A5268107804AB01225A
:10540000FEF770FD10B14FF0FF30E8E7EC4A12688C
:105410005179EB4A5268107804AB0122FEF762FD25
:1054200010B14FF0FF30DAE7E54A1268917CE44AA8
:105430005268107804AB0122FEF754FD10B14FF012
:10544000FF30CCE7DE4A1268D17DDD4A5268107821
:1054500004AB0122FEF746FD10B14FF0FF30BEE76E
:10546000D74A12681179D64A5268107804AB0122E3
:10547000FEF738FD10B14FF0FF30B0E70C208DF88B
:105480001000CF4A12681179CD4A5268107804ABE7
:105490000122FEF727FD10B14FF0FF309FE70F20EC
:1054A000FEF7A8FDC648806A407A8DF81000C44A0D
:1054B00012689178C24A5268107804AB0122FEF754
:1054C00011FD10B14FF0FF3089E7BD48806A007AC6
:1054D0008DF81000BA4A12685178B94A52681078AB
:1054E00004AB0122FEF7FEFC10B14FF0FF3076E76F
:1054F000B9F1000F07D0B248806A807A40F0E0002E
:105500008DF8100004E0AE48806A807A8DF81000B3
:10551000AB4A12689179AA4A5268107804AB01220A
:10552000FEF7E0FC10B14FF0FF3058E7B9F1000F83
:1055300007D0A348806AC07A40F0E0008DF81000E0
:1055400003E0A048C07A8DF810009D4A1268D17916
:105550009B4A5268107804AB0122FEF7C3FC10B1DD
:105560004FF0FF303BE7B9F1000F02D0C820FEF743
:1055700041FD40208DF81000914A12681179904A3F
:105580005268107804AB0122FEF7ACFC10B14FF06A
:10559000FF3024E778208DF81000894A126851798D
:1055A000874A5268107804AB0122FEF79BFC10B1C9
:1055B0004FF0FF3013E783498889FEF71BFD002079
:1055C0008DF810007E4A126851797D4A5268107831
:1055D00004AB0122FEF786FC10B14FF0FF30FEE66F
:1055E000774A1268917A764A5268107804AB0222A0
:1055F000FEF77EFB10B14FF0FF30F0E69DF8110092
:105600009DF8101040EA012B0C209BFBF0F0C6B275
:105610000020A86068602860A0606060206082460A
:1056200065E0674A1268D17A654A5268107804AB1F
:105630000C22FEF75DFB10B14FF0FF30CFE69DF876
:1056400011009DF8101040EA012000B2ADF80800EA
:105650009DF813009DF8121040EA012000B2ADF849
:105660000A009DF815009DF8141040EA012000B2D0
:10567000ADF80C00BDF90810206808442060BDF9A1
:105680000A10606808446060BDF90C10A068084406
:10569000A0609DF817009DF8161040EA012000B2A6
:1056A000ADF800009DF819009DF8181040EA01209F
:1056B00000B2ADF802009DF81B009DF81A1040EAF8
:1056C000012000B2ADF80400BDF9001028680844BC
:1056D0002860BDF90210686808446860BDF90410CC
:1056E000A8680844A8600AF1010000F0FF0AB2456A
:1056F00097DB3448D0F800C02868C117090441EA94
:1057000010410704624600233846FAF792FD3246FC
:105710000023CDE90201FAF78CFD28602948D0F872
:1057200000C06868C117090441EA104107046246D5
:1057300000233846FAF77DFD32460023CDE9020109
:10574000FAF777FD68601F48D0F800C0A868C11755
:10575000090441EA10410704624600233846FAF77B
:1057600068FD32460023CDE90201FAF762FDA86028
:105770001448D0F804C02068C117090441EA104158
:105780000704624600233846FAF753FD32460023E9
:10579000CDE90201FAF74DFD20600A48D0F804C0B7
:1057A0006068C117090441EA1041070462460023FA
:1057B0003846FAF73EFD32460023CDE9020103E008
:1057C000240000201CE60008FAF733FD6060114851
:1057D000D0F804C0A068C117090441EA10410704C9
:1057E000624600233846FAF724FD32460023CDE90D
:1057F0000201FAF71EFDA060A068002804DDA06881
:10580000A0F58030A06003E0A06800F58030A060C3
:105810000020E4E51CE600082DE9FC5F06460F4683
:1058200000253D494968087801AB03220D21FEF7A8
:105830005FFA10B10720BDE8FC9F9DF8040000F05E
:105840001F008DF804009DF8050000F01F008DF882
:1058500005009DF8060000F01F008DF806000024EA
:1058600056E056F8240057F82410A0EB010BBBF1CA
:10587000000F01DB594601E0CBF10001084605F0BD
:105880009FFC4FF08F41009005F068FB814601A816
:10589000005D68B32149086805F0AAFC83465946B3
:1058A0001F4805F05BFB804604E01E49404605F0BA
:1058B000E7FC804601A8005D401EC0B201A9085562
:1058C0000028F2D14146484605F048FB83464FF098
:1058D0007E5105F0D3FD82462AF0004B0F488169C6
:1058E000584605F099FD12D20120A04005430EE074
:1058F0000A480169484605F08FFC05D3074841690D
:10590000484605F089FD02D20120A0400543641CF1
:10591000032CA6DB28468EE7240000201CE60008A6
:1059200000B04C4554E3853F014691F90020002A20
:1059300001DD00201EE091F90020002A01DA042098
:1059400018E091F90120002A01DD012012E091F90F
:105950000120002A01DA05200CE091F90220002A3A
:1059600001DD022006E091F90220002A01DA06207A
:1059700000E007207047000000B585B000BF00BF01
:105980003648806940F040003449886108468069A3
:1059900000F04000009000BF00BF00BF00BF00BF8C
:1059A0000846806940F0400088610846806900F040
:1059B0004000009000BF00BF00BF00BF00BF08460E
:1059C000806940F0400088610846806900F040002E
:1059D000009000BF00BF00BF00BF00BF0846806945
:1059E00040F0040088610846806900F004000090DF
:1059F00000BF00BF00BF10200190002002900120D6
:105A000003900320049001A91548FBF75FFF0820CD
:105A1000019000200290012003900320049001A92E
:105A20000F48FBF753FF0420019000200290012053
:105A300003900320049001A90948FBF747FF0120C8
:105A4000019000200290022003900320049001A9FD
:105A50000448FBF73BFF05B000BD0000001002400A
:105A6000001801400008014070B50446002514B13B
:105A700001202B4908702A480078002834D01021D2
:105A80002848FCF7C3F878B108212648FCF7BEF88F
:105A900050B104212348FCF7B9F828B1012122486C
:105AA000FCF7B4F801281FD10A20FEF7A3FA002062
:105AB0001B49087010211B48FCF7A8F800B9012504
:105AC00008211848FCF7A2F800B90225042115485E
:105AD000FCF79CF800B9032501211348FCF796F860
